:020000040800F2
:100000004006002049010008510100085301000882
:1000100055010008570100085901000800000000C0
:100020000000000000000000000000005B0100086C
:100030005D010008000000005F0100086101000888
:100040006301000863010008630100086301000800
:1000500063010008630100086301000863010008F0
:1000600063010008630100086301000863010008E0
:1000700063010008630100086301000891010008A2
:1000800063010008630100086301000863010008C0
:1000900063010008630100086301000863010008B0
:1000A00063010008630100086301000863010008A0
:1000B0006301000863010008630100086301000890
:1000C0006301000863010008630100086301000880
:1000D000630100089D030008630100086301000834
:1000E0006301000863010008630100086301000860
:1000F0006301000863010008630100086301000850
:10010000630100086301000863010008630100083F
:10011000630100086301000863010008810300080F
:10012000630100086301000863010008630100081F
:10013000DFF810D000F01AF8004800472D11000831
:10014000AFF300804006002006488047064800477D
:10015000FEE7FEE7FEE7FEE7FEE7FEE7FEE7FEE777
:10016000FEE7FEE7AD02000831010008064C074D2E
:1001700006E0E06840F0010394E807009847103477
:10018000AC42F6D3FFF7D8FF2C1700084C17000835
:1001900010B502220421204800F0ADFC002839D01F
:1001A000022204211C4800F09EFC04211A4800F0A1
:1001B00030FC1A480078401E194908700B46174851
:1001C0000068401C1A5C15480078401CC1B21846F3
:1001D00000F005FC01281DD11048008882B21049AA
:1001E000491C1048006800F083FD98B100BF07214A
:1001F0000D4801F029FA0028F9D079210A4801F0C8
:10020000C2F90021084801F010FA40F20531064811
:1002100001F04AFA10BD0000000002401C0000205E
:100220003C000020200000200038014000B587B0CD
:100230004FF4A06001F0B4F804214FF4A06000F086
:100240001AFC00208DF81A001448029001208DF845
:100250001900002003901248006804901148009093
:1002600000208DF8180001904FF4405005906A4628
:1002700004210D4800F04BFC022204210A4800F042
:1002800032FC02220421084800F0D8FC002211466A
:100290000F2000F087FF07B000BD00003D000020E8
:1002A0001C000020043801400000024008B530481E
:1002B000006840F001002E49086000BF2C4800682B
:1002C00000F002000028F9D000BF2948406840F043
:1002D0008000274948600020009002E00098401C00
:1002E000009000985028F9D32148406840F09000D1
:1002F0001F4948600020009002E00098401C0090D8
:1003000000985028F9D300BF1948406820F0030036
:1003100017494860084600681649084014490860B3
:10032000084640681449084011494860084600687A
:10033000104908400E4908600846006820F48020F3
:100340000860084640680D49084009494860084669
:10035000006808490840064908604FF41F0088609B
:1003600001F0B0F800214FF0006000F07BFF08BD05
:1003700000100240FFFFF6FE0C00FFE8FFFF00F751
:1003800010B50121044801F0A4F8012803D101218E
:10039000014801F09BF810BD0014004010B5052184
:1003A000FE4801F051F900287ED0FC4801F0E6F843
:1003B000C1B2FB4802780078401CF94B1870F9482C
:1003C000815400787F280DD10020194608707921CA
:1003D000F24801F0D8F800BF0621F04801F034F9E6
:1003E0000028F9D0EF48007811286ED1ED48407808
:1003F000EE28FAD1EA48007802280AD17921E748A4
:1004000001F0C1F800BF0621E44801F01DF9002801
:10041000F9D0E3480078072827D1E2488078000621
:10042000E049C97840EA0140DE49097940EA012003
:10043000DC4949790843DC490860DA488079DB49BE
:100440000870084602780421D648801C00F0C7FADC
:1004500001280AD17921D14801F095F800BF062181
:10046000CE4801F0F1F80028F9D0CD4800780928ED
:1004700041D10020CA490870CA48C079CC490870E7
:10048000C848007AC9490870084602780121C54861
:10049000C01D00F0A4FA01280CD17921BF4801F059
:1004A00072F800BF062100E025E2BC4801F0CCF85C
:1004B0000028F7D0BE480078401CC2B2BD49BA48F7
:1004C000006800F03CFC00240EE014E0B948015D37
:1004D000B24801F058F800BF0621B04801F0B4F866
:1004E0000028F9D0601CC4B2B1480078401C844296
:1004F000ECDB01F0F7F8AB48007806283ED1A948BC
:100500004078F9283AD17921A44801F03CF800BF9D
:100510000621A24801F098F80028F9D004219F484C
:1005200001F031F800BF06219C4801F08DF8002849
:10053000F9D0A04800F010FC00240DE09D48015DBA
:10054000964801F020F800BF0621944801F07CF89D
:100550000028F9D0601CC4B2042CEFDB79218F484D
:1005600001F011F800BF06218C4801F06DF8002859
:10057000F9D001F0B7F8002089490870894800785F
:10058000002846D187484078FF2842D17921834806
:1005900000F0F9FF00BF0621804801F055F800285F
:1005A000F9D00B217D4800F0EEFF00BF06217B480B
:1005B00001F04AF80028F9D02221784800F0E3FF42
:1005C00000BF0621754801F03FF80028F9D000244B
:1005D0000DE07948015D714800F0D5FF00BF0621AC
:1005E0006E4801F031F80028F9D0601CC4B20B2C21
:1005F000EFDB7921694800F0C6FF00BF062167489C
:1006000001F022F80028F9D001F06CF800206449CC
:1006100008706448007843284ED162484078BC286E
:100620004AD15F48007802280AD179215B4800F05E
:10063000AAFF00BF0621594801F006F80028F9D0AA
:1006400057480078052837D156488078401C5B49C8
:1006500008805448C0785A49088052480079534964
:1006600008700846027802214E48801C00F0B7F955
:10067000012811D1524A1178504A107800F017FB26
:100680007921464800F07FFF00BF0621434800F073
:10069000DBFF0028F9D00AE0FF21404800F073FF9B
:1006A00000BF06213D4800F0CFFF0028F9D001F03F
:1006B00019F800203A4908703A480078442856D181
:1006C00038484078BB2852D13548007802280AD1F2
:1006D0007921324800F057FF00BF06212F4800F073
:1006E000B3FF0028F9D02E48007807283FD12D48C5
:1006F000C078401C2B49897840EA01202F490880A6
:10070000284840792749097940EA01202C49088086
:100710002448807925490870084602780421214838
:10072000801C00F05CF9012811D1254A1178234A78
:10073000107800F0BCFA7921184800F024FF00BFBF
:100740000621164800F080FF0028F9D00AE0FF21BA
:10075000124800F018FF00BF0621104800F074FF97
:100760000028F9D000F0BEFF00200D4908700D48A8
:100770000078312875D10B484078CE2871D10848CF
:10078000007802281FD17921044800F0FCFE00BF48
:100790000621024800F058FF002813E0003801400D
:1007A0001900002024000020200000200800002064
:1007B00009000020300000200E0000200A00002068
:1007C0000C000020E4D04C480078072827D14B4883
:1007D000807800064949C97840EA014047490979CB
:1007E00040EA0120454949790843454908604348A2
:1007F0008079444908700846027804213F48801CEB
:1008000000F0EDF801280AD179213F4800F0BBFE45
:1008100000BF06213C4800F017FF0028F9D03648F9
:10082000007808281DD10020334908703348C0796A
:10083000401C3649086008460268521C04213448AE
:1008400000F022FA4021304800F0EFFE40F205317E
:100850002D4800F01CFF04212D4800F0F3F800F0B3
:1008600041FF26480078212844D124484078DE28DA
:1008700040D12148007802280AD100BF0721224830
:1008800000F0E2FE0028F9D079211F4800F07BFE3D
:100890001948007807282DD10020174908701748FB
:1008A0008079184908700846027804211348801C92
:1008B00000F095F801280AD17921134800F063FE71
:1008C00000BF0621104800F0BFFE0028F9D000F05C
:1008D00009FF00BFBFF34F8F0E48006800F4E060CF
:1008E0000D490843001D0B490860BFF34F8F00BF3F
:1008F00000BFFEE700BF10BD19000020240000204B
:100900002000002008000020003801401C000020CA
:10091000000002400CED00E00000FA0510B50446AE
:1009200040F2026000F03CFD40F20E6000F038FD45
:100930004FF40073032218211F4800F099FB4FF475
:100940008063032204211C4800F092FB1B4800F046
:100950001FFE2146194800F0C9FD0021174800F08C
:10096000DDFE0021154800F0C9FE0021134800F00B
:10097000A8FE0021114800F080FE00210F4800F081
:1009800072FE04210D4800F0A4FE08210B4800F07F
:10099000BDFE00221146252000F004FC40F2053186
:1009A000064800F081FE0021044800F03EFE0348A6
:1009B00000F045FE10BD0000000801400038014075
:1009C00002E008C8121F08C1002AFAD17047704718
:1009D000002001E001C1121F002AFBD1704770B551
:1009E0000446154600262246012903D11078C0434B
:1009F000C6B208E0002304E010784640521C581CA0
:100A0000C3B28B42F8DBAE4201D1012070BD0020A1
:100A1000FCE770B505460C462146284600F028F94B
:100A200008B900BFFEE704EB8400810005F108006F
:100A3000405820F0010104EB8400820005F1080019
:100A4000815070BD70B505460C462146284600F021
:100A50000FF908B900BFFEE704EB8400810005F13F
:100A60000800405840F0010104EB8400820005F1C9
:100A70000800815070BD70B504460D4629462046D9
:100A800000F0F6F808B900BFFEE705EB850081002D
:100A900004F10800405820F0010105EB85008200B8
:100AA00004F108008150002105EB8500820004F16B
:100AB0000800815005EB8500820004F10C00815094
:100AC00005EB8500820004F11000815005EB8500E4
:100AD000820004F1140081506068AA000F21914047
:100AE0000843606070BD10B543688C0002FA04F4DE
:100AF0002343436010BD30B503461C688D0002FAE5
:100B000005F52C400CB1012000E0002030BD2DE99E
:100B1000F04104460D4616462946204600F0A8F846
:100B200008B900BFFEE705EB8500820004F1100064
:100B30003168815005EB8500820004F11400B16832
:100B40008150308A81B205EB8500820004F10C00EF
:100B5000815005EB8500810004F10800475827F417
:100B60007C57F1687068084371690843074305EBD7
:100B70008500810004F108004750307E01280ED125
:100B800005EB8500810004F10800405840F0400169
:100B900005EB8500820004F1080081500DE005EBB3
:100BA0008500810004F10800405820F0400105EB69
:100BB0008500820004F108008150707E01280ED16A
:100BC00005EB8500810004F10800405840F08001E9
:100BD00005EB8500820004F1080081500DE005EB73
:100BE0008500810004F10800405820F0800105EBE9
:100BF0008500820004F108008150B07E70B905EBD9
:100C00008500810004F10800405820F0100105EB38
:100C10008500820004F1080081500DE005EB85009D
:100C2000810004F10800405840F0100105EB8500F8
:100C3000820004F108008150BDE8F08170B50446DF
:100C40000D4616462946204600F012F808B900BFA6
:100C5000FEE705EB8500810004F1080040583043B1
:100C600005EB85018A0004F10801885070BD000081
:100C700002460120034B9A4202D1042900DD0020E4
:100C8000704700000004024070B506460C46154649
:100C900021463046FFF7ECFF08B900BFFEE7A9B2D6
:100CA00004EB8400820006F10C00815070BD2DE938
:100CB000F04104460D464FF000684FF4806000FBA1
:100CC000058700F045F940F2073000F0A5F800264E
:100CD0000AE0384600F0C6F807F5806740F20730B2
:100CE00000F09AF8701C86B2A642F2DBBDE8F081F3
:100CF0002DE9F04704460E4617464FF000094FF025
:100D0000010900F025F940F2073000F085F825468A
:100D10004FF000080BE056F82810284600F03AF98A
:100D200008F101082D1D40F2073000F075F8E019B8
:100D3000A842F0D800F080F84846BDE8F08730B50A
:100D400003461C46002004E025780D54641C451C15
:100D5000E8B29042F8DB30BD044A116801700A0A1B
:100D600042700A0C82700A0EC27070470021024065
:100D700000B50346012200BF00F00CF802465B1EDE
:100D8000012A01D1002BF7D1012A00D104221046FB
:100D900000BD000000200A49C96801F0010109B145
:100DA00001200CE00649C96801F0100109B10320D7
:100DB00005E00349C96801F0040101B10220704750
:100DC0000020024000B50346012200BF00F00CF8ED
:100DD00002465B1E012A01D1002BF7D1012A00D166
:100DE0000422104600BD000000200A49C96C01F031
:100DF000010109B101200CE00649C96C01F01001A4
:100E000009B1032005E00349C96C01F0040101B1F7
:100E10000220704700200240064A02EB9011096848
:100E200000F01F0301229A401143024B03EB901282
:100E300011607047002002400848006940F08000BF
:100E40000649086106480088B0F5007F04D90846C5
:100E5000006D40F0800008657047000000200240EF
:100E6000E0F7FF1F30B5054636480088B0F5007F33
:100E700048D9354885421ED24FF47020FFF778FFDD
:100E80000446002C5BD13148006940F002002F4934
:100E9000086108464561006940F0400008614FF470
:100EA0007020FFF765FF04462848006920F0020023
:100EB0002649086143E04FF47020FFF783FF0446A2
:100EC000002C3CD12148006D40F002001F4908650C
:100ED00008464565C06900F0020008B10846456152
:100EE0001A48006D40F04000184908654FF4702022
:100EF000FFF768FF04461548006D20F00200134913
:100F000008651CE04FF47020FFF732FF0446B4B9C7
:100F10000E48006940F002000C490861084645612E
:100F2000006940F0400008614FF47020FFF720FF97
:100F300004460648006920F0020004490861204682
:100F400030BD0000E0F7FF1FFFFF07080020024050
:100F50000C48006900F0800020B10B480949486046
:100F60000A4848600A480088B0F5007F09D905485A
:100F7000006D00F0800020B1034802494864034836
:100F8000486470470020024023016745AB89EFCDDC
:100F9000E0F7FF1F70B504460D4600262A4800887A
:100FA000B0F5007F35D92948844219D24FF470201A
:100FB000FFF7DEFE0646002E43D12548006940F0CB
:100FC00001002349086125604FF47020FFF7D0FE2F
:100FD00006461F48006920F001001D49086130E005
:100FE0004FF47020FFF7EEFE064656BB1848006D22
:100FF00040F001001649086525604FF47020FFF7A6
:10100000E1FE06461248006D20F001001049086517
:1010100017E04FF47020FFF7ABFE06468EB90C4880
:10102000006940F001000A49086125604FF4702012
:10103000FFF79EFE06460648006920F001000449BD
:101040000861304670BD0000E0F7FF1FFFFF070892
:101050000020024010B540F2026000F0A1F9012327
:101060001A464821014800F003F810BD000801406D
:10107000F0B5044616460025002201F00F0501F0E8
:10108000100707B1354300201EE0012787401F40AD
:10109000C7B122684FEA800C0F2707FA0CF7BA4352
:1010A000870005FA07F73A43282904D1012787402A
:1010B0001F40676105E0482903D1012787401F4091
:1010C00027612260471CB8B20828DED3082022E03E
:1010D000012787401F40E7B16268A0F108074FEA87
:1010E000870C0F2707FA0CF7BA43A0F10807BF00D7
:1010F00005FA07F73A43282904D1012787401F4002
:10110000676105E0482903D1012787401F40276117
:101110006260471CB8B21028DAD3F0BD024690686E
:10112000084008B1012070470020FCE7FFF792FF5C
:1011300001211548FFF7F2FF01281DD1134800686F
:1011400013490840B0F1005F16D1124800F068FA68
:1011500004211148FFF75DFC0C4840680F49086006
:10116000084600680E4908600849086880F3088846
:1011700000BF0B4800688047FFF758F84FF4E13094
:10118000FFF7CCFB00BFFEE700080140002000088D
:101190000000FE2F00380140000002400400002043
:1011A000000000202DE9F04103460D4616460024BC
:1011B0000027A0462448006800F4E060B0F5A06F66
:1011C00015D006DCB0F5407F18D0B0F5806F19D18E
:1011D00010E0B0F5C06F06D0B0F5E06F12D1002777
:1011E0004FF0040815E001274FF0030811E0022733
:1011F000B8460EE003274FF001080AE004274FF03D
:10120000000806E04FF4A06000F022F80227B8467C
:1012100000BF00BFC7F1040005FA00F4C8F10401E3
:101220000F20C8403040044324010848C45403F050
:101230001F01012088405911890001F1E021C1F806
:101240000001BDE8F08100000CED00E000E400E0EA
:1012500002490143024A1160704700000000FA058C
:101260000CED00E0034A0A400243034B1A60BFF34F
:101270004F8F704780FFFF1F08ED00E02DE9F04F12
:101280008BB00746002009903EA090E8004CC06853
:10129000CDE905BECDF810A007900FF2EC0ADAE90F
:1012A000000ACDE9020A0FF2E00ADAE9000ACDE904
:1012B000000A38484068C0F381000A900A9820B1BB
:1012C000012804D0022829D103E0334928E032491B
:1012D00026E03048406800F48038B8F5803F09D1F6
:1012E0002D4C2C48406800F40039B9F5003F02D17C
:1012F000641000E0294C27484068C0F38342254829
:10130000406800F0006008B142F010020F2A01D2DC
:10131000921C00E0521C04FB02F101E01E4900BFD8
:1013200000BF1C484068C0F3031504A8465D21FABD
:1013300006F318484068C0F3022502A8465D23FA68
:1013400006FC14484068C0F3C2251DF8056023FA66
:1013500006F0089037B1012F06D0022F06D0032FD8
:101360000AD106E0099108E0099306E0CDF824C00F
:1013700003E00898099000E000BF00BF09980BB097
:10138000BDE8F08F0000000000000000010203042F
:10139000060708090010024000127A0000093D000B
:1013A000064A02EB9011096800F01F0301229A40DF
:1013B0001143024B03EB9012116070470010024082
:1013C000064A02EB9011096800F01F0301229A40BF
:1013D0009143024B03EB90121160704700100240E2
:1013E000064A02EB9011096800F01F0301229A409F
:1013F0001143024B03EB9012116070470010024042
:10140000002000212C4A126842F480322A4B1A60D4
:1014100000BF401C284A126802F4003119B94FF687
:10142000FF729042F5D1244A126802F400320AB9E0
:1014300000BFFEE7204A52681F4B5A601A465268A6
:101440005A601A46526842F480625A601A465268DC
:1014500022F440325A601A46526842F440325A60CE
:101460001A465268154B1A40134B5A601A46526876
:10147000134B1A43104B5A601A46126842F080729E
:101480001A6000BF0C4A126802F00072002AF9D0FC
:10149000094A526822F00302074B5A601A46526802
:1014A00042F002025A6000BF034A526802F00C0286
:1014B000082AF9D17047000000100240FFFFC3F76F
:1014C0000000280810B5FFF79BFF10BDCA4302615A
:1014D00070470246D06800EA01031069084010B165
:1014E0000BB1012070470020FCE700002DE9F04718
:1014F00004460D460027B846B94600261D49601A25
:101500008C421CD006DC1C48204470B1B0F5806FC2
:101510001FD10FE0B0F5806F16D0B0F56C4F18D129
:101520000320FFF7ABFE074614E00220FFF7A6FEFC
:1015300007460FE00220FFF7A1FE07460AE002205F
:10154000FFF79CFE074605E00220FFF797FE0746DF
:1015500000E000BF00BF07EB5500B0FBF5F64FF60B
:10156000F07006EA000806F00F0948EA0900A060DA
:10157000BDE8F087004C004000BCFFBF0146486852
:10158000C0F308007047C1F30802426070470000D2
:1015900010B504462049601A8C4228D006DC1F484A
:1015A000204490B1B0F5806F33D117E0B0F5806F73
:1015B00026D0B0F56C4F2CD140F20E30FFF710FF63
:1015C00040F20E30FFF7FCFE24E040F21140FFF73E
:1015D00007FF40F21140FFF7F3FE1BE040F212401C
:1015E000FFF7FEFE40F21240FFF7EAFE12E040F283
:1015F0001340FFF7F5FE40F21340FFF7E1FE09E06C
:1016000040F21440FFF7ECFE40F21440FFF7D8FE22
:1016100000E000BF00BF10BD004C004000BCFFBF99
:10162000C16821F40051C1607047426922F0400254
:101630004261426901F040031A4342617047C16848
:1016400041F40051C160704710B5024602EB9110A1
:10165000006801F01F040123A340184008B10120D5
:1016600010BD0020FCE7426922F400724261426929
:1016700001F400731A4342617047426922F4807298
:101680004261426901F480731A434261704710B5A8
:10169000C1F38912825801F01F040123A3409A4329
:1016A000C1F38913C25010BD10B5C1F3891282581D
:1016B00001F01F040123A3401A43C1F38913C25050
:1016C00010BDC26822F4C062C260C2680A43C26030
:1016D00070470A460021C16821F004011143C1602E
:1016E00070470000002004E00021034A1154411C0F
:1016F000C8B20C28F8DB704724000020026922F4ED
:101700004052026102690A43026170470A460021A1
:10171000C16821F008011143C1607047C26822F41A
:101720008052C260C2680A43C26070474C1700080A
:101730000000002024000000C00900087017000805
:10174000240000201C060000D00900080000000052
:101750000000000000000000000000010211213123
:10176000436373829200000000020000000000004A
:0400000508000131BD
:00000001FF
